:020000040800F2
:1060000010B90020656100086D6100086F6100082B
:1060100071610008736100087561000800000000EC
:106020000000000000000000000000007761000890
:1060300079610008000000007B6100087D610008B4
:106040007F6100087F6100087F6100087F610008B0
:106050007F6100087F6100087F6100087F610008A0
:106060007F6100087F6100087F6100087F61000890
:106070007F6100087F6100087F6100087F61000880
:106080007F6100087F6100087F6100087F61000870
:106090007F6100087F6100087F6100087F61000860
:1060A0007F6100087F6100087F6100087F61000850
:1060B0007F6100087F61000805A100087F6100087A
:1060C0007F6100087F6100087F6100087F61000830
:1060D000A59400089DA40008A7A40008B1A4000886
:1060E000CD7100087F6100087F610008000000009A
:1060F00000000000000000000000000000000000A0
:1061000000000000000000007F6100087F610008BF
:1061100089A4000893A400087F6100087F6100083B
:106120007F6100087F6100087F6100087F610008CF
:106130007F6100087F6100087F6100087F610008BF
:106140007F6100087F6100087F6100087F610008AF
:10615000DFF80CD000F0D4FD0048004791F20008B1
:1061600010B900200648804706480047FEE7FEE7D2
:10617000FEE7FEE7FEE7FEE7FEE7FEE7FEE7FEE7F7
:10618000A5A00008516100082DE9F05F0546002038
:1061900092469B4688460646814640241BE0284698
:1061A00041464746224600F04AFC53465A46C01A2A
:1061B000914110D311461846224600F031FC2D1AA9
:1061C00067EB01084F4622460120002100F028FC21
:1061D00017EB00094E41201EA4F10104DFDC484604
:1061E00031462A464346BDE8F09F40EA01039B073B
:1061F00003D009E008C9121F08C0042AFAD203E03C
:1062000011F8013B00F8013B521EF9D27047D2B29F
:1062100001E000F8012B491EFBD270470022F6E78F
:1062200010B513460A4604461946FFF7F0FF20460C
:1062300010BD421E12F8013F002BFBD111F8013BAB
:1062400002F8013B002BF9D1704730B505462A46CC
:106250000B4612F8010B13F8014B08B1A042F8D01D
:106260001CB1002802D06D1CF1E7284630BDCAB22F
:10627000401E10F8011F8A4202D00029F9D10020E7
:106280007047421C10F8011B0029FBD1801A70478F
:1062900010B5002200E0521C835C8C5CA34201D14B
:1062A000002BF8D1D8B2E1B2401A10BD30B5044687
:1062B0000020034600E05B1C934203D2E05CCD5C0F
:1062C000401BF8D030BD034611F8012B00F8012B1C
:1062D000002AF9D11846704770B500B9106800253A
:1062E00012E00B4602E0A64203D05B1C1C78002C97
:1062F000F9D1E3B22B4305D02CB125B1002100F830
:10630000011B04E00546401C0678002EE9D1106010
:10631000284670BD004ADFE7001000202DE9F04755
:1063200091460F4680460446002614F8015B2DB1C5
:1063300000F0A8FB0068405DC007F6D12B2D02D00D
:106340002D2D18D0641E4A463946204600F0A7FB82
:1063500027B13968A14201D1C7F8008071054FF01B
:1063600002040BD54042002803DD04F053FC046016
:10637000A007BDE8F08746F48066E4E70028F8DA75
:1063800004F048FC04606FF00040F2E7F0B480EAEB
:106390000102D40F4200B2EB410F02D2024608467E
:1063A00011464A0042D0C30DDDB2C1F3C752AD1A47
:1063B000202D35DAC1F3160141F4000204B1524236
:1063C000C5F1200602FA06F12A411044B3EBD05F72
:1063D00023D0C4B1012DA0EBC35009DCF0BC4FF0B9
:1063E000004202EAC352DBB200F5000000F0FDBB40
:1063F000400000F1807000EBC350A0F1807040EAD3
:10640000D170490009E0490841EAC071A0EBC350CE
:1064100000F50000400800EBC350F0BC00F0DCBB0E
:106420006142012202EB4101001BF6E7F0BC70471C
:1064300081F00041AAE780F00040A7E780EA01026E
:1064400010B502F00043400022D04A001FD0010ED8
:1064500001EB1261C0F35600C2F3560240F4000093
:1064600042F40002A0FB022000047F39140400D093
:10647000401C50EA124001D44000491EC2B20C0632
:1064800004EBD010401C4008802A02D003E000201A
:1064900010BD20F00100002900DA0020184310BDD3
:1064A00030B480EA010202F0004530F0004221F0F1
:1064B000004013D090B1C30DD40DC2F31601C0F348
:1064C0001600E41A41F4000140F400027D349142C8
:1064D00001D3641C00E04900002C02DA30BC00202B
:1064E00070474FF400000023914201D3891A0343FF
:1064F00040084FEA4101F7D151B1914202D14FF02A
:10650000004105E002D24FF0010101E06FF001010E
:1065100003EBC450284430BC00F05EBB2DE9FE4FB5
:10652000804681EA0300C00F0C46009021F0004134
:1065300023F00045B8EB0200A94105D240462146B0
:1065400090461C460B46024623F00040104347D0BD
:10655000270DC7F30A00C3F30A510290401A0190B5
:1065600040286BDAC3F3130040F4801B0098924676
:1065700020B10023D2EB030A63EB0B0B01985946C1
:10658000C0F14002504600F04BFA06460D46504618
:106590005946019A00F063FA10EB080061410024AB
:1065A00087EA115284EAE7731A4340D0009A62B333
:1065B000019A012A4FEA075215DC001B61EB020128
:1065C0004FF0004202EA0752CDE90042001C41F5BB
:1065D000801132462B4600F045FB03B0BDE8F08F3A
:1065E00040462146F9E7001B61EB0201001C41F522
:1065F000801300185B412018A2F5001747EB030138
:1066000040EAD570B6196D4111E06D084FEA3606C3
:1066100045EAC0754FEA0752001B61EB0201001CFE
:1066200041F5801149084FEA3000001951413246C6
:106630002B4603B0BDE8F04F00F005BB00980122E7
:1066400040000023D0EB020263EBE0730098214688
:106650004FEAE074B8EB000061EB0401E9E783F076
:1066600000435BE781F0004158E72DE9FE4F81EAE6
:10667000030404F0004421F0004100944FF0000BAB
:1066800023F0004350EA01045ED052EA03045BD0D9
:10669000C3F30A54C1F30A552C44A4F2F334019411
:1066A000A0FB0254C1F3130141F48011C3F313039F
:1066B00043F4801301FB024400FB034E840A970A53
:1066C00044EA815447EA8357A4FB076802958D0A80
:1066D00005FB07854FEA932C04FB0C542705029D0C
:1066E0004FEA065847EA1637B5EB08056EEB070C7C
:1066F000870E920E47EA811742EA8312A7FB020136
:10670000B6EB0B0164EB00042B0D43EA0C335E186F
:1067100044EB1C50DA465146E7FB0201C5F3130473
:106720004FEA0B3343EA14534FEA0432019C43EA25
:106730000603A4F10C040294009CCDE900B400F01F
:1067400091FA03B0BDE8F08F00200146F9E72DE98A
:10675000F04D81EA030404F0004B21F0004514469B
:106760004FF0000A23F0004150EA050220D054EA1D
:1067700001021DD0C5F30A570246C5F31303C1F346
:106780001300C1F30A5640F4801543F48013A7EBBD
:106790000608101BD64608F2FD3873EB050002D33D
:1067A00008F1010801E092185B41B8F1000F03DA2B
:1067B00000200146BDE8F08D00204FF48011064610
:1067C00084460EE0171B73EB050705D3121B63EB22
:1067D000050306434CEA010C49084FEA30009218C1
:1067E0005B4150EA0107EDD152EA030012D082EA80
:1067F000040083EA0501084305D0101BAB4106D213
:106800000122002306E000224FF0004302E06FF077
:10681000010253101AEB06004CEB085110EB0A0072
:1068200041EB0B01BDE8F04D00F00DBA96230022BC
:10683000114600F0DAB90EB5C10F80EAE0700844E5
:10684000CA07002140F233438DE80E000A460B468A
:1068500000F008FA03B000BD0EB540F233410291DA
:106860000021CDE900110A460B4600F0FBF903B008
:1068700000BD00F0004220F00040C10DC0F3160042
:1068800040F400007F2901DA00207047962903DCDC
:10689000C1F19601C84001E096398840002AF4D041
:1068A0004042704720F00040C10DC0F3160040F494
:1068B00000007F2901DA00207047962903DCC1F12E
:1068C0009601C840704796398840704770B5C1F34B
:1068D0000A5201F000450024C1F3130140F2FF33D6
:1068E00041F480119A4201DA002070BD40F2334336
:1068F0009A42A2F2334203DC524200F0A0F800E0D8
:1069000090402C43F1D0404270BDC1F30A5210B503
:10691000C1F3130140F2FF3341F480119A4201DACE
:10692000002010BD40F233439A42A2F2334203DC0E
:10693000524200F084F810BD904010BD00F00042BB
:1069400030F000400AD0C10D01F56071C0F31600AF
:1069500042EA0151C2084007114370470020014636
:106960007047000030B5041E71F1000404DB4FF0E5
:106970000044404264EB0101141E73F1000405DB86
:106980001C464FF00043524263EB0403994208BF98
:10699000904230BD01F0004330B421F0004150EA94
:1069A000010206D00A0DA2F56072C1F31301002A9C
:1069B00002DC30BC00207047440F44EAC104C1002F
:1069C000E01830BC00EBC25000F006B9002801DB33
:1069D000C0F10040002901DBC1F100418142704754
:1069E000002801DBC0F10040002901DBC1F10041BA
:1069F0008842704730B50B46014600202022012412
:106A000009E021FA02F59D4205D303FA02F5491B7C
:106A100004FA02F52844151EA2F10102F1DC30BD92
:106A2000202A04DB203A00FA02F10020704791404E
:106A3000C2F1200320FA03F3194390407047202A43
:106A400004DB203A21FA02F00021704721FA02F318
:106A5000D040C2F120029140084319467047202AD5
:106A600006DBCB17203A41FA02F043EAE07306E076
:106A700041FA02F3D040C2F1200291400843194686
:106A800070470000004870475C55010810B5044687
:106A9000FFF7F8FF0068005D00F0010010BD2DE970
:106AA000F05F82460078002715468B460AF1010404
:106AB000B946302801D09DB113E014F8010B01272D
:106AC000782803D0582801D045B10AE00DB1102D27
:106AD00007D10027102514F8010B02E0082500E07B
:106AE0000A250026B0460EE005FB080005FB06F16E
:106AF000012701EB10461FFA80F8B6F5803F00D35E
:106B0000B94614F8010B294600F00CF90028EBDA1D
:106B1000BBF1000F05D00FB1641E00E05446CBF866
:106B20000040B9F1000F06D004F074F802210160B2
:106B3000C81EBDE8F09F48EA0640FAE70FB40023FC
:106B400000B589B00CA900910B996FF00042CB60A1
:106B50001E4B06931E4B07930423CDE901321D4AB9
:106B6000089202466B46002000F07EF909B05DF8FD
:106B700014FB70B586B006464FF0FF300091CDE9AA
:106B80000101002015460C4604903246694604A8CF
:106B9000FFF7D4FF02460498211825B108B1084632
:106BA00000E020462860049800280DD0002A02DD6D
:106BB0000098884208D0081B0094CDE901043246B1
:106BC000694604A8FFF7BAFF06B070BDA1700008BF
:106BD000BF7000088D6A00080029A8BF7047401CDC
:106BE000490008BF20F00100704710B4B0FA80FCE3
:106BF00000FA0CF050EA010404BF10BC704749B120
:106C0000CCF1200421FA04F411FA0CF118BF01218F
:106C100021430843A3EB0C01CB1D4FEA00614FEA6F
:106C2000102042BF002010BC704700EBC35010443E
:106C30000029A4BF10BC7047401C490008BF20F0C9
:106C4000010010BC704710B5141E73F1000408DA7F
:106C5000401C41F1000192185B411A4301D120F020
:106C6000010010BD2DE9F04D92469B4611B1B1FADD
:106C700081F202E0B0FA80F220329046FFF7D0FEB7
:106C800004460F4640EA0A0041EA0B0153465A46C1
:106C9000084313D0114653EA010019D0C8F140024D
:106CA0005046FFF7CCFE05460E4650465946424632
:106CB000FFF7B6FE084305D0012004E02046394620
:106CC000BDE8F08D0020054346EAE0762C433743CB
:106CD0000A986305E40AA0EB08000022FD0A44EAD2
:106CE00047540A3002D500200146E9E70105101992
:106CF0006941DDE9084500196941BDE8F04DA2E7A9
:106D0000064C074D06E0E06840F0010394E80700F8
:106D100098471034AC42F6D3FFF71EFA40640108DE
:106D2000606401083A2800D2303820F02002412A5D
:106D300001D3A2F13700884201D34FF0FF307047F2
:106D40002DE9FF4F087883B09946FF2805D0491CEC
:106D50002D2804D00024002008E000200BE00124AE
:106D6000F9E700EB800003EB4000491C0B78FF2B98
:106D7000F7D104B1404200230293147819461D460E
:106D80002D2C01D02B2C04D1521C2D2C13D00024DF
:106D90000294AA461478FF2C0FD00A25A3FB05788D
:106DA00001FB05814FF0000C03FB0C11521CE31991
:106DB0004AEB0101EEE70124EAE7814453EA0100CE
:106DC00002D019F5C87F06DA03980021C0E9001146
:106DD00007B0BDE8F08F0025AE4E2F46DFF8B88231
:106DE000184600F07DF9CDE90001B9F1000002DAA2
:106DF000C9F1000400E004460023A74A1AEB030B84
:106E000042EB045A12E0E00707D02A4633463846E0
:106E10004146FFF72AFC074688462A463346104675
:106E20001946FFF722FC05460E466410002CEAD1F5
:106E3000DDE90001B9F1000F5A46534606DAFFF7C3
:106E400086FC3A464346FFF782FC05E0FFF70DFC5F
:106E50003A464346FFF709FC029A0AB181F0004125
:106E6000039AC2E90001B3E72DE9FF4F1F468DB039
:106E7000D7E901464FF0FF382E2045464FF0000974
:106E80000B90B9696D1C0E988847396A824688470D
:106E90000028F6D1BAF1FF3F0AD024F4D064002EC6
:106EA00011DDBAF12B0F08D0BAF12D0F0BD102E092
:106EB000404611B08DE744F48064B9696D1C0E98AA
:106EC00088478246761E6946600501D52D2000E080
:106ED0002B208DF8000001F1010B0DF1200809E0D5
:106EE000B9696D1C0E98884782460F9844F4007467
:106EF000761E0560002E02DDBAF1300FF0D00B993E
:106F00008A453ED144F0800406E00F99681CA9F13F
:106F1000010944F400740860B9696D1C761E0E986E
:106F2000884782463028F0D02BE00B998A4505D15E
:106F3000200603D444F08004761E18E0504603F087
:106F40007CFE08B30DF11301761E44F400748B45EA
:106F500008D2AAF130000BF8010B200607D5A9F1E1
:106F6000010003E0200602D409F101008146A005DA
:106F700002D50F99681C0860B9696D1C0E98884786
:106F80008246002ED1DC53E0002E51DDBAF1650FB0
:106F900002D0BAF1450F4BD1A00549D5B9696D1C96
:106FA00024F44074761E0E9888478246002E0CDD2D
:106FB0002B2804D0BAF12D0F07D144F48074B9699D
:106FC0006D1C0E9888478246761EE00501D52D215E
:106FD00000E02B2108F8011BCDF82C8021E00DF1F9
:106FE0002901761E44F4007488450CD2AAF13000C1
:106FF00010F0FF0088F8000002D10B99884509D9EC
:1070000008F1010806E0E00501D5244801E042F25C
:107010000F708146B9696D1C0E98884782460F989B
:107020000560002E04DD504603F007FE0028D6D18F
:10703000F9690E988847FF208BF8000088F8000057
:107040000020069007904B466A4608A906A8FFF75D
:1070500077FEA00502D46FF001002AE714F0240F98
:107060000AD0E00714D1DDE906123868031D3B6041
:107070000068C0E900120BE0DDE90601FFF78AFCB9
:107080000146E00704D13868021D3A6000680160DB
:1070900028460EE7000014400000F03FF1D8FFFF43
:1070A000426842B1016811F8013B23B1521EC0E9A8
:1070B0000012184670470121C160881E704742685F
:1070C0005AB1C368016843B983688B4205D0491E31
:1070D000521CC0E90012002070474FF0FF3070478B
:1070E0000EB540F2334202920022CDE9002213464F
:1070F000FFF7B8FD03B000BD70B58C1810F8015B48
:1071000015F0070301D110F8013B2A1106D110F840
:10711000012B03E010F8016B01F8016B5B1EF9D144
:107120002B0705D40023521E0DD401F8013BFAE7CA
:1071300010F8013BCB1A921C03E013F8015B01F835
:10714000015B521EF9D5A142D8D3002070BD0000CA
:107150004FF0E021096921F004014FF0E0221161B4
:10716000C21700EB5272C2F3C702074B1A701946DE
:10717000097801EB4102C2EBC1114FF6FF7202EA3E
:10718000C101024A11807047F60F0020F40F002061
:1071900001460D4A12884A434FF0E0235A6100220B
:1071A0009A6101221A6100BF4FF0E022106900F0DD
:1071B00001021AB100F48032002AF5D000224FF00B
:1071C000E0231A619A617047F40F002000B511485E
:1071D000006800F4805060B10E490968C1F3403086
:1071E00002F09CFA0C48008840F040000A490880F0
:1071F0000AE00A48006940F48040084908610846EE
:10720000006920F4804008614FF480500449086010
:1072100000BD0000080C0140003001400010024099
:1072200014040140002123498279002A3AD00A46F9
:10723000126803689A430B461A600A1D12680368B5
:107240009A430B1D1A60027911440A6803681A43B5
:107250000A60184A0832126803689A43154B0833CB
:107260001A601A1D126803689A43124B0C331A6095
:107270004279102A0ED11A1F126803681A430D4B67
:1072800008331A601A1D126803681A43094B0C333D
:107290001A600DE00749427911440A6803681A43ED
:1072A0000A6005E0027911440A6803689A430A609B
:1072B000704700000004014070B504460B48FEF71B
:1072C000E0FF05462046FEF7DCFF2844801CB0F5B1
:1072D000806F01D3002070BD05A10448FEF7A9FF0F
:1072E00021460248FEF7A5FF0120F4E780000020B8
:1072F0002F00000010B50848FEF7C3FF044600E069
:10730000641E002C03DD0448005D2F28F8D1002006
:107310000149085510BD00008000002030B504462A
:1073200004254FF4302000F085F80546042D17D1D0
:107330000C48006940F002000A49086108464461AF
:10734000006940F0400008614FF4302000F072F80E
:1073500005460448006941F6FD710840014908618D
:10736000284630BD0020024004200B49C96801F0C6
:10737000010109B101200EE00749C96801F00401CB
:1073800009B1022007E00449C96801F0100109B100
:10739000032000E0042070470020024003480069F9
:1073A00040F0800001490861704700000020024061
:1073B00078B506460C46042500200090E80200F04F
:1073C00039F80546042D24D11348006940F0010026
:1073D000114908613480E80200F02CF80546042DBC
:1073E00010D1B01C0090200C00990880E80200F039
:1073F00021F805460848006941F6FE710840064933
:10740000086106E00448006941F6FE71084002493F
:107410000861284678BD0000002002400248034968
:1074200048600348486070472301674500200240D8
:10743000AB89EFCD00B502460423FFF795FF034665
:1074400003E0FFF791FF0346521E012B01D1002AF2
:10745000F7D102B90523184600BD000051B18200E2
:10746000A2F1C042126842F001038200A2F1C042C0
:10747000136009E08200A2F1C0421268034B1A4077
:107480008300A3F1C0431A6070470000FEFF0F00A5
:10749000D0E901121143C2681143026911434269E4
:1074A000114382691143C2691143026A1143426A5E
:1074B0001143826A1143C26A1143026B114302688D
:1074C0009200A2F1C0421160816808290BD10168C5
:1074D0008900A1F1C041096841F0400201688900BA
:1074E000A1F1C0410A60416B0968426B526841EAF0
:1074F0000211426B926841EA0221426B928941EA91
:107500000241426B128A41EA0251426B127D41EA0A
:107510000261426B926911430268521C9200A2F10F
:10752000C0421160C16AB1F5804F1BD1816B0968FF
:10753000826B526841EA0211826B926841EA022131
:10754000826B128A41EA0251826B127D41EA02612A
:10755000826B9269114302689200A2F1C042C2F8A4
:10756000041107E06FF0704201688900A1F1C04189
:10757000C1F804217047000030B500228B071C0FB2
:107580000F2303FA04F20B4B8C1053F8243093436F
:10759000084C8D1044F8253023468C1053F82430C5
:1075A0008C07240F00FA04F42343024C8D1044F896
:1075B000253030BD080001402DE9F041024600258C
:1075C0000026002000230024002791F803C00CF0BF
:1075D0000F0591F803C00CF0100CBCF1000F03D0A4
:1075E00091F802C04CEA050591F800C0BCF1000F0B
:1075F00031D0146800202BE04FF0010C0CFA00F39E
:10760000B1F800C00CEA03069E4220D183004FF07F
:107610000F0C0CFA03F7BC4305FA03FC4CEA040414
:1076200091F803C0BCF1280F06D14FF0010C0CFA01
:1076300000FCC2F814C00AE091F803C0BCF1480F86
:1076400005D14FF0010C0CFA00FCC2F810C0401C30
:107650000828D1D31460B1F800C0BCF1FF0F34DDAD
:10766000546800202EE000F1080C4FF0010808FAE1
:107670000CF3B1F800C00CEA03069E4221D183004E
:107680004FF00F0C0CFA03F7BC4305FA03FC4CEA6D
:10769000040491F803C0BCF1280F05D100F1080CD7
:1076A00008FA0CF8C2F8148091F803C0BCF1480F36
:1076B00007D100F1080C4FF0010808FA0CF8C2F8E5
:1076C0001080401C0828CED35460BDE8F081000033
:1076D000F0B50A46002300240021002500F00046F2
:1076E000B6F1004F02D11D4EF16901E01B4E7168E9
:1076F000C0F3034583B200F44016B6F5401F08D12D
:1077000021F07061154E766826F07066134F7E602A
:1077100012E000F48016B6F5801F06D1032606FAA3
:1077200005F4A14341F0706106E0460D360103FA0D
:1077300006F6B14341F0706122B1460D360103FAFD
:1077400006F6314300F00046B6F1004F02D1034E79
:10775000F16101E0014E7160F0BD000000000140E8
:1077600010B504461B48844204D10121042001F0D5
:10777000F7FB2EE01848844204D10121082001F0D3
:10778000EFFB26E01548844204D10121102001F0CE
:10779000E7FB1EE01248844204D10121202001F0C1
:1077A000DFFB16E00F48844204D10121402001F0A4
:1077B000D7FB0EE00C48844204D10121802001F067
:1077C000CFFB06E00948844203D10121801501F076
:1077D000C7FB10BD00080140000C01400010014033
:1077E0000014014000180140001C0140002001402D
:1077F0000246002093680B400BB1012000E00020FE
:1078000070474161704701617047000000200149E5
:10781000087070479C0C002030B50446002540F2EB
:107820003F1340F2DF120021084601F017FA00BFB3
:107830002C200849088000BF00BF07E000BF00BF40
:107840004FF0C240048000BF00BF6D1CB5F5163F6D
:10785000F4D330BDFEFFFF602DE9F04306460F462E
:1078600014461D464FF00008C146681E83B2601ED4
:1078700082B23946304601F0F1F900BF2C200F49A1
:10788000088000BFB04614E0B9460CE000BF00BF5E
:107890000B4800884FF0C241088000BF00BF09F1CB
:1078A00001001FFA80F9A945F0DB08F101001FFA79
:1078B00080F8A045E8DBBDE8F0830000FEFFFF6034
:1078C0009A0C00202DE9F04F8BB081468846144673
:1078D0009A464FF0000B002500200A9009900026E0
:1078E0000027FF2C03DA04EBC40086001CE04AF2F8
:1078F000A17084420ADB4AF2F170844206DCA4F5EE
:107900002740223800EBC00086000DE04AF240100C
:10791000844209DB4AF28B10844205DCA4F5204046
:10792000703800EBC0008600242206F5001168467E
:1079300002F09AFF4FF0000B37E000200A900BE0B6
:107940003F020998411CC9B209911DF80000074384
:107950000A98401CC0B20A900A980328F0DB002560
:1079600019E007F4000040B108EB050001B212482D
:107970000288484600F0B2FB0AE0BAF1000F07D0D7
:1079800008EB050001B20D480288484600F0A6FB4E
:107990007F00681CC5B2182DE3DB09F101000FFA66
:1079A00080F90BF1010000F0FF0BBBF10C0FC4DB01
:1079B0000BB0BDE8F08F0000980C00209A0C00205E
:1079C0002DE9F84F04468A4616461F464FF0000937
:1079D000002000908346002E02DA76424FF0010B21
:1079E00000253FE0781B401E294951F82000B6FBD6
:1079F000F0F00A21B0FBF1F201FB1208009820BB65
:107A0000B8F1000F14D1781EA84211DD0B9801289F
:107A100009D12022514620460A9BFFF753FF04F16B
:107A20000C0004B203E009F1010000F0FF0917E0C7
:107A300001200090BBF1000F07D0A4F10C0108B2A7
:107A40002D2251460A9BFFF73DFF08F130025146B7
:107A500020460A9BFFF736FF04F10C0004B200BF7A
:107A6000681CC5B2BD42BDDB0CE020225146204659
:107A70000A9BFFF727FF04F10C0004B2A9F10100F3
:107A800000F0FF09B9F1000FEFDCBDE8F88F00004E
:107A90001C4F01082DE9FF4F83B0054693461E4653
:107AA000DDF840904FF0000A0024002002900021F1
:107AB0005846FEF795FF01D8202000E02D2007460C
:107AC00001233A4628460499FFF7FCFE05F10C0015
:107AD00005B200215846FEF783FF01D8584601E061
:107AE0008BF0004083464C4951F82900FEF79EFE7A
:107AF00007465946FEF7A2FC83464FF07C51584694
:107B0000FEF744FC83465846FEF718FFCDE9000116
:107B100006F0AAF90746FEF73DFF834600242DE054
:107B200006EB0901491E091B3B4A52F82100FEF7EA
:107B30007DFE014601905846FEF7B2FC8046FEF7F6
:107B4000B1FE0A21B0FBF1F201FB120727B902983E
:107B500010B9701EA0420FD101200290012307F13D
:107B6000300228460499FFF7ADFE05F10C0005B27E
:107B70000AF1010000F0FF0A601CC4B2B442CFDB7E
:107B800001232E2228460499FFF79CFE05F10C00E4
:107B900005B20AF1010000F0FF0A002425E0A9F176
:107BA0000101091B1C4A52F82100FEF73FFE014665
:107BB00001905846FEF774FC8046FEF75AFE0A21F3
:107BC00090FBF1F201FB1200303087B201233A46FC
:107BD00028460499FFF776FE05F10C0005B20AF17C
:107BE000010000F0FF0A601CC4B24C45D7DB0CE07A
:107BF0000123202228460499FFF764FE05F10C00BA
:107C000005B20AF1010000F0FF0A06EB0900504539
:107C1000EEDC07B0BDE8F08F1C4F01082DE9F04FF6
:107C200095B081460F4614469A464FF0000B00254A
:107C300000201490139000BF002660787F280BDA94
:107C4000617820788138BE2202FB0010403800EBBA
:107C5000C0004FEAC0080AE0617820788138BE226F
:107C600002FB0010413800EBC0004FEAC008482278
:107C700008F5401101A802F0F7FD4FF0000B35E0C8
:107C8000002014900BE036021398411CC9B21391E6
:107C900001A9085C06431498401CC0B214901498C3
:107CA0000328F0DB002517E006F4000038B178194E
:107CB00001B211480288484600F010FA09E0BAF112
:107CC000000F06D0781901B20C480288484600F02F
:107CD00005FA7600681CC5B2182DE5DB09F1010034
:107CE0000FFA80F90BF1010000F0FF0BBBF1180F48
:107CF000C6DB15B0BDE8F08F980C00209A0C002070
:107D00002DE9F0470646884615469946DDF820A03D
:107D10000024002717E04B462A464146304600F033
:107D200016F8044614B92846BDE8F08704F00F00A1
:107D300000EB400006EB800006B204F00F00384470
:107D4000C7B205EB14155745E5DB2846ECE72DE9EE
:107D5000F04105460E4614461F460CB1207810B976
:107D60000020BDE8F0812078812807DA22783B46A0
:107D700031462846FFF7A6FD1120F2E7204606F01F
:107D80003BFF18B9204606F016FF50B16078217805
:107D900040EA01223B4631462846FFF793FD212069
:107DA000DFE73B46224631462846FFF737FF2220D1
:107DB000D7E72DE9F04106460F46144698460025C0
:107DC00013E04346224639463046FFF7C0FF0546DA
:107DD00015B92046BDE8F08105F00F0000EB40002A
:107DE00006EB800006B204EB1514EAE72DE9FC412E
:107DF00004460D461646CDE90056B4F90630B4F9EE
:107E00000420B4F90210B4F9000000F002F8BDE853
:107E1000FC812DE9FF4F85B007468846129809F08E
:107E200038F900EB40004FF6FF7101EA800907982E
:107E3000C01B84B20898A0EB080085B209EB0400CF
:107E4000401E90FBF4F0C6B2182095FBF0F0B04253
:107E500003DA182095FBF0F0C6B2A14501DB002043
:107E600002E0A4EB090040101FFA80FB06EB46007D
:107E7000B5EBC00F01DC002004E006EB4600A5EBEB
:107E8000C000401080B2049007EB0B0080B203905A
:107E9000049840441FFA80FA00200290029016E0F5
:107EA0000C2094FBF0F0C0B2019000900FFA8AF120
:107EB000039800B2DDE91223FFF722FF12900AF1C6
:107EC00018001FFA80FA0298401CC0B20290029873
:107ED000B042E5DB09B0BDE8F08F2DE9F34F85B086
:107EE0000546AC89EE89B5F90070B5F90280B5F99F
:107EF0000490B5F906A000F08BFC049000F08EFC15
:107F00000390069808B1E88A00E0288A0290069853
:107F100008B1688B00E0A88A0190069808B1288B08
:107F200000E0688A0090029800F0AAFC08EB0402C6
:107F300091B23A1990B2224600F051FA08EB0402CD
:107F400091B2A9EB0402521E90B2224600F047FA09
:107F5000AAEB0402521E91B23A1990B2224600F0E6
:107F60003EFAAAEB0402521E91B2A9EB0402521E81
:107F700090B2224600F033FA4FF0000B31E0A9EB4B
:107F800004039AB208EB0B0399B23B1998B200F0C4
:107F90004BFCA9EB04039AB2AAF10103A3EB0B0378
:107FA00099B23B1998B200F03FFCAAEB04039AB2D5
:107FB00008EB040399B207EB0B0398B200F074FCD2
:107FC000AAEB04039AB208EB040399B2A9F10103E6
:107FD000A3EB0B0398B200F067FC0BF101001FFA52
:107FE00080FBB345CBDB019800F04AFCA31B9AB29F
:107FF00008EB040399B23B1998B200F0F0F9A31B07
:108000009AB208EB040399B2A9EB04035B1E98B281
:1080100000F0E5F9A31B9AB2AAEB04035B1E99B228
:108020003B1998B200F0DBF9A31B9AB2AAEB040348
:108030005B1E99B2A9EB04035B1E98B200F0CFF966
:1080400008EB060CA4441FFA8CF3A9EB040C1FFAEE
:108050008CF208EB060C1FFA8CF107EB040C1FFAEC
:108060008CF000F06BFBAAEB060CACEB040C1FFAD7
:108070008CF3A9EB060C1FFA8CF208EB060CA44457
:108080001FFA8CF107EB060C1FFA8CF000F056FB80
:10809000AAEB060C1FFA8CF3A9EB040C1FFA8CF266
:1080A000AAEB060CACEB040C1FFA8CF107EB040CEA
:1080B0001FFA8CF000F042FB009800F0E1FB002278
:1080C0002846A968FFF792FE049800F0D3FB0398B6
:1080D00000F0D6FB07B0BDE8F08F0000F0B5044615
:1080E0000D46164615480078012814D11448B0F9F9
:1080F0000000A0420EDC1248B0F90400A04209DDE5
:108100000F48B0F90200A84204DC0D48B0F906009F
:10811000A84200DCF0BDABB2A2B2A9B2A0B200F09E
:108120009DFD00BF2C200749088000BF00BF00BF95
:10813000881C068000BF00BF00BFEBE79C0C00203E
:108140009E0C0020FEFFFF6030B504460D462B4616
:1081500022462946204600F081FD00BF2C2006491A
:10816000088000BF00BF00BF04480088891C088049
:1081700000BF00BF30BD0000FEFFFF60980C002074
:108180002DE9F74F88B00546688A1FFA80FB288BD7
:1081900080B207902C896E89A8890690E88A05909C
:1081A000A88B0490B5F90080B5F90270B5F9049078
:1081B000B5F906A000F02CFB039000F02FFB029015
:1081C000069800F05DFB3A1991B208EB040290B2F8
:1081D000224600F004F93A1991B2A9EB0402521EAA
:1081E00090B2224600F0FBF807EB040C1FFA8CF368
:1081F000A9EB040C1FFA8CF2B9B208EB040C1FFABD
:108200008CF000F09BFA07EB0B0C1FFA8CF31FFAB3
:1082100089F207EB040C1FFA8CF11FFA88F000F0CA
:108220008DFA002001902CE0AAEB04039AB207EB30
:108230000B0399B2019B434498B200F035FBAAEBC3
:1082400004039AB207EB0B0399B2A9F10103DDF81D
:1082500004C0A3EB0C0398B200F026FBA9EB0403C7
:108260009AB2AAF10103DDF804C0A3EB0C0399B2A2
:1082700008EB040398B200F0D7FA0198401C80B2D2
:1082800001900198B042CFDBAAEB0402521E91B2DA
:1082900008EB040290B2224600F0A1F8AAEB040217
:1082A000521E91B2A9EB0402521E90B2224600F077
:1082B00096F8059800F0E4FA07EB0B0EDDF81CC009
:1082C000F4441FFA8CF3A9EB060C1FFA8CF207EBAF
:1082D0000B0C1FFA8CF108EB060C1FFA8CF000F067
:1082E0002DFA049800F0CCFAA31B9AB2AAEB04036F
:1082F0005B1E99B208EB040398B200F070F8A31B60
:108300009AB2AAEB04035B1E99B2A9EB04035B1EAD
:1083100098B200F064F8AAEB060CACEB040C1FFA60
:108320008CF3A9EB060C1FFA8CF207EB0B0EDDF8B1
:108330001CC0F4441FFA8CF108EB060C1FFA8CF0F9
:1083400000F0FCF9AAEB060C1FFA8CF3A9EB060C63
:10835000ACEB040C1FFA8CF2AAEB060CACEB040C91
:108360001FFA8CF108EB060CA4441FFA8CF000F005
:10837000E5F9E88900F084FA08EB040108B200236B
:1083800007F1080109B2099AFFF713FDA88A00F066
:1083900077FA00210A9807EB0B0ECDE90001DDF812
:1083A0001CC0F4440FFA8CF3A9EB060CACF10C0CD6
:1083B0000FFA8CF207EB0B0C0FFA8CF108EB060CA2
:1083C0000CF10C0C0FFA8CF0FFF723FD039800F072
:1083D00051FA029800F054FA0BB0BDE8F08F2DE985
:1083E000F74F90B00446174617B913B0BDE8F08FA9
:1083F0000FFA84FACDF83CA0119838440FFA80FBAC
:10840000CDF838B0DDF838B0BBF5A07F05DA0E9AAC
:1084100091B20F9A90B2FFF797FE20B20B900D9099
:108420001198C01B00B20A900C900C98002805DB34
:108430000C9A91B20D9A90B2FFF786FEE01900B245
:1084400006900990119800B2059008900998B0F52F
:10845000F07F07DA089A91B2099EB0B2FFF774FE76
:10846000099E01E04FF4F076119805B2E01B00B2CE
:1084700003900398002801DA00200390B2B2A9B259
:10848000039B98B200F0D0F9E01B0FFA80F8C146C8
:10849000119800B204900790B8F1000F05DB079A1D
:1084A00091B21FFA88F0FFF74FFE012F00D19CE731
:1084B0007800C0F1030000B200900020029038B2B2
:1084C000019034E10098002807DA02988000801DAE
:1084D0000099084400B200902CE0DDE90110401A38
:1084E00080000A300099084400B200900198401EB4
:1084F00000B201900E98401E00B20E90ABF1010048
:108500000FFA80FB0C98401C00B20C900A98401C9B
:1085100000B20A900998401E00B2099008F10100CB
:108520000FFA80F80698401E00B2069009F101008B
:108530000FFA80F90298401C00B202900F98401C7C
:1085400000B20F90AAF101000FFA80FA0D98401CBA
:1085500000B20D900B98401E00B20B900898401C82
:1085600000B208900798401C00B207900598401E82
:1085700000B205900498401E00B204900F98B0F528
:10858000F07F08DC0E98002805DB0E9A91B20F9A56
:1085900090B2FFF7D9FDBAF1000F08DBBBF1000F75
:1085A00005DB1FFA8BF11FFA8AF0FFF7CDFDBAF158
:1085B000000F18DBCDF80CA05D46B5F5A07F01DDFE
:1085C0004FF4A075002D00DA0025CAEB440006B276
:1085D000B6F5F07F01DD4FF4F076B2B2A9B2039B9D
:1085E00098B200F021F90D98B0F5F07F09DC0C98F5
:1085F000B0F5A07F05DC0C9A91B20D9A90B2FFF70E
:10860000A3FD0B98002809DB0A98B0F5A07F05DCD4
:108610000A9A91B20B9A90B2FFF796FD0B98002838
:1086200019DB0B9803900A9DB5F5A07F01DD4FF48F
:10863000A075002D00DA00250B98C0EB440006B2AF
:10864000B6F5F07F01DD4FF4F076B2B2A9B2039B2C
:1086500098B200F0E9F80998B0F5F07F08DC0898C6
:10866000002805DB089A91B2099A90B2FFF76CFDD9
:10867000B8F1000F08DB0798002805DB079A91B2D4
:108680001FFA88F0FFF760FDB8F1000F18DBCDF896
:108690000C80079DB5F5A07F01DD4FF4A075002D7E
:1086A00000DA0025C8EB440006B2B6F5F07F01DD24
:1086B0004FF4F076B2B2A9B2039B98B200F0B4F8CE
:1086C0000698B0F5F07F09DC0598B0F5A07F05DCD1
:1086D000059A91B2069A90B2FFF736FDB9F1000FF4
:1086E00009DB0498B0F5A07F05DC049A91B21FFA6B
:1086F00089F0FFF729FDB9F1000F18DBCDF80C90D8
:10870000049DB5F5A07F01DD4FF4A075002D00DAC2
:108710000025C9EB440006B2B6F5F07F01DD4FF449
:10872000F076B2B2A9B2039B98B200F07DF8DDE911
:1087300001108842FFF6C6AE00BF56E62DE9F043B1
:1087400006460F4614461D464FF00008C146681EF7
:1087500083B2601E82B23946304600F07FFA00BF15
:108760002C200F49088000BFB04614E0B9460CE049
:1087700000BF00BF0B4800884FF0C241088000BF17
:1087800000BF09F101001FFA80F9A945F0DB08F1EB
:1087900001001FFA80F8A045E8DBBDE8F083000087
:1087A000FEFFFF60980C00202DE9F04706460F46BB
:1087B00014461D46DDF820A04FF00008C146681E93
:1087C00083B2601E82B23946304600F047FA00BFDD
:1087D0002C200E49088000BFB04613E0B9460BE0DC
:1087E00000BF00BF4FF0C240A0F800A000BF00BF14
:1087F00009F101001FFA80F9A945F1DB08F1010038
:108800001FFA80F8A045E9DBBDE8F087FEFFFF60B6
:1088100001480088704700009A0C00200148008839
:1088200070470000980C0020F0B505460E4614462F
:108830000027601E82B233463146284600F00EFA09
:1088400000BF2C200949088000BF2F460AE000BF66
:1088500000BF074800884FF0C241088000BF00BF3A
:10886000781C87B2A742F2DBF0BD0000FEFFFF607C
:10887000980C002001490880704700009A0C0020E5
:108880000149088070470000980C002030B5012491
:10889000034D2C70034C2080A2806180E38030BDAA
:1088A0009C0C00209E0C0020F0B507460D46164695
:1088B0002C4605E021463846FFF746FC601C84B292
:1088C000B442F7DBF0BD01460020704710B54FF40D
:1088D000A06000F0D1FA4820FEF73AFC472142F2AE
:1088E0000F7000F0D9FA0121084600F039FB012190
:1088F0000C48FEF7EDFE02F007F901F0A9FF00F0C9
:108900009FF909F0BBFC50B901F01EFC4FF4E130B7
:10891000054908600020087148710AF03FFF06F021
:108920009BF810BD00023000C80F00202DE9F05F59
:1089300004460D4690464FF47F6B4FF0000A08EB5B
:1089400088004FF4962101EB003705F15E0083B2F9
:1089500004F15E0082B22946204600F07FF900BF94
:108960002C201F49088000BF002001F0A1FF032038
:1089700001F0A5FFC7F3074001F0A1FFC7F30720EF
:1089800001F09DFFF8B201F09AFF2E461EE0A146CD
:1089900016E0FF2001F093FF4FEA002AFF2001F0CC
:1089A0008EFF40EA0A0A00BF00BF0AEA0B004FF040
:1089B000C241088000BF00BF09F101001FFA80F921
:1089C00004F15F008145E4DB701C86B205F15F00B5
:1089D0008642DCDB012001F06BFFBDE8F09F000068
:1089E000FEFFFF60F8B505460E46144604EB840012
:1089F000000300F596205F231A4631460090284672
:108A000006F03CF9F8BD000010B52F210348FDF732
:108A10002EFC08B9012010BD0020FCE780000020DA
:108A200070B504460D464FF6FF761548007890B1B4
:108A30001448007808B32946204600F029F8124966
:108A4000088000200F4908700F49087801210F4A5B
:108A50001268904711E00B48007870B90A4908780D
:108A600000210A4A12689047074806884FF6FF70AF
:108A700005490880012003490870304670BD000098
:108A8000A80C0020B40C0020B20C0020AC0C00207C
:108A90007CB506460D460024694601A801F0C6FCD7
:108AA00000BF21E035F93400BDF80410884219DA1E
:108AB00005EBC400B0F90400BDF80410884211DDD4
:108AC00005EBC400B0F90200BDF80010884209DAD5
:108AD00005EBC400B0F90600BDF80010884201DDC6
:108AE00020467CBD601CC4B2B442DBDB4FF6FF7095
:108AF000F7E7000010B51848406940F0010016493A
:108B000048610520FEF744FB1448154948624FF0C0
:108B1000C240886200200862C8610846C069C86116
:108B20000846C069C8610846C069C8610846C0698E
:108B3000C8610846C06940F48070C8610846C069D1
:108B400040F48060C8610846C06940F48050C86144
:108B50000846C069C86110BD001002400C300140D9
:108B60000000024000B59DB00121084600F0F8F970
:108B70000121080200F0C4F90120079000200890AC
:108B80000F20099000200A900B900C900D900090FF
:108B9000019003200290002003900490059006901D
:108BA0000E900F901090082010901020119000202F
:108BB0001290149015901390169018901A904FF4EC
:108BC000805017908000199007A81B90CDF870D0A6
:108BD0000EA8FEF75DFC01210020FEF73FFC1DB052
:108BE00000BD000008B50121602000F0B9F90320A4
:108BF0008DF8020018208DF803004CF20370ADF8D8
:108C0000000069460948FEF7D7FC4FF68470ADF8BE
:108C1000000069460648FEF7CFFC4FF40B60ADF844
:108C2000000069460148FEF7C7FC08BD001401407A
:108C30000018014010B5FFF7D5FFFFF793FF10BDF7
:108C400010B5FFF7F7FF00F039F80020FEF7E4FD5C
:108C50000F20FEF79DFAFFF74DFF10BD30B500BFA6
:108C60002A24154D2C8000BF00BF0412AD1C2C809F
:108C700000BF00BFC4B22C8000BF00BF14122C8004
:108C800000BF00BFD4B22C8000BF00BF2B24AD1E9C
:108C90002C8000BF00BF0C12AD1C2C8000BF00BF99
:108CA000CCB22C8000BF00BF1C122C8000BF00BFC4
:108CB000DCB22C8000BF30BDFEFFFF6010B500BFEE
:108CC000C0204A49088000BF00BF0C20891C0880D2
:108CD00000BF00BF0220088000BF00BFC120891E66
:108CE000088000BF00BF4420891C088000BF00BF6F
:108CF000C520891E088000BF00BF0020891C088095
:108D000000BF00BF1620088000BF00BF8020088081
:108D100000BF00BF3620891E088000BF00BF28208A
:108D2000891C088000BF00BF3A20891E088000BF50
:108D300000BF5520891C088000BF00BFB020891EDD
:108D4000088000BF00BF0020891C088000BF00BF52
:108D5000B120891E088000BF00BFB020891C088098
:108D600000BF00BFB420891E088000BF00BF0220E2
:108D7000891C088000BF00BFB620891E088000BF84
:108D800000BF0220891C088000BF00BF088000BF10
:108D900000BFE920891E088000BF00BF0020891C99
:108DA000088000BF00BFF720891E088000BF00BFF9
:108DB000A920891C088000BF00BF5120088000BF87
:108DC00000BF2C20088000BF00BF8220088000BFA9
:108DD00000BF1120891E088000BF7820FEF7D8F957
:108DE00000BF29200149088000BF10BDFEFFFF60C1
:108DF00008B500204FF4A0734FF4F07201460090C4
:108E000005F03CFF08BD000070B5002100230F22D3
:108E1000C47804B3154C246804F4E064C4F5E06439
:108E2000210AC1F10403CA40447804FA03F18478AA
:108E30001440214309010E4C0678A155047804F032
:108E40001F050124AC4005786D11AD0005F1E0254A
:108E5000C5F8004109E0047804F01F050124AC4086
:108E6000044D0678761145F8264070BD0CED00E003
:108E700000E400E080E100E002490143024A1160A1
:108E8000704700000000FA050CED00E001480068A2
:108E900070470000F80F002038B504460D461E202C
:108EA0008DF8000002208DF8010000208DF80200EE
:108EB00001208DF803006846FFF7A6FF0E48C06941
:108EC00040F004000C49C8610C480580001F048074
:108ED0004FF6FE7009491C390880081F008840F0D1
:108EE0000100091F088005482C38008840F0010067
:108EF00002492C39088038BD001002402C0800407F
:108F000029B1064A52690243044B5A6104E0034AFC
:108F100052698243014B5A617047000000100240C1
:108F200029B1064AD2690243044BDA6104E0034ADC
:108F3000D2698243014BDA617047000000100240A1
:108F400029B1064A12690243044B1A6104E0034A3C
:108F500012698243014B1A61704700000010024001
:108F600029B1064A92690243044B9A6104E0034A1C
:108F700092698243014B9A617047000000100240E1
:108F800030B500210022002400232D4D6D6805F02E
:108F90000C0121B1042905D0082923D105E0294D70
:108FA000056022E0284D05601FE0254D6D6805F441
:108FB0007012234D6D6805F48034022505EB924252
:108FC0001CB9224D554305600BE01D4D6D6805F43D
:108FD00000351DB11B4D5543056002E01A4D554348
:108FE000056002E0174D056000BF00BF144D6D68BD
:108FF00005F0F0010909164D6B5C0568DD40456020
:109000000F4D6D6805F4E061090A114D6B5C456810
:10901000DD4085600A4D6D6805F46051C90A0C4D4C
:109020006B5C4568DD40C560054D6D6805F44041E9
:10903000890B084D6B5CC568B5FBF3F5056130BD68
:109040000010024000127A000024F40000093D00E4
:1090500000000020100000200120704710B5012002
:1090600000F032F9FF2000F03EF910BD70B5054662
:109070004FF6FF7401E0601E84B2FF2000F033F968
:10908000A84201D0002CF6D10CB9FF2070BD002001
:10909000FCE70000F8B500F01EF900F0A4F9002587
:1090A00004E0FF2000F01FF9681C85B20A2DF8DBF0
:1090B000142600BF95220021084600F029F9044635
:1090C000012C04D0301EA6F101018EB2F2D1002095
:1090D00051490870012C4AD187224FF4D5710820DC
:1090E00000F016F9012847D1002506E0FF2000F026
:1090F000FAF80DF80500681C85B2042DF6DB9DF822
:109100000200012879D19DF80300AA2875D14FF6F5
:10911000FE7600BF01220021372000F0F9F801227D
:109120009107292000F0F4F8044624B1301EA6F17E
:1091300001018EB2EED1002E5FD0012200213A2033
:1091400000F0E6F8002858D1002506E0FF2000F0E6
:10915000CAF80DF80500681C85B2042DF6DB9DF8F1
:10916000000000F0400018B106202B49087044E0D0
:1091700004202949087040E001220021372000F036
:10918000C7F801220021292000F0C2F80446012C72
:1091900017DC0220204908704FF6FE7600BF01223E
:1091A0000021372000F0B4F801220021292000F02E
:1091B000AFF80446BCB1301EA6F101018EB2EED16B
:1091C00011E00120144908704FF6FE7600BF01221D
:1091D0000021104600F09CF8044624B1301EA6F190
:1091E00001018EB2F3D12EB101225102102000F004
:1091F0008FF810B1002008490870FFF72FFF00F02A
:10920000ECF80548007808B10020F8BD0CB1204604
:10921000FBE7AA20F9E70000140000202DE9F04147
:1092200006460F46154619480078062800D07F02EA
:10923000012D0CD101223946112000F069F80446B5
:10924000F4B96902304600F023F8044618E0012220
:109250003946122000F05CF8044600BF4FF400715C
:10926000304600F015F8044606F50076681E051E27
:1092700001D0002CF2D0012200210C2000F048F88F
:10928000FFF7ECFE2046BDE8F0810000140000204E
:1092900070B504460D46FE20FFF7E8FE08B1012038
:1092A00070BD04E0FF2000F01EF82070641C281E32
:1092B000A5F101018DB2F5D1FF2000F014F8FF20D7
:1092C00000F011F80020EBE710B50446214601201C
:1092D00000F006F910BD10B5012000F023F90120BF
:1092E000FFF7F2FF10BD10B504462146012000F043
:1092F00025FAC0B210BD10B50020FFF7E5FF00F061
:1093000078F808B9002010BDFFF7A8FE0120FAE7A1
:109310002DE9F04105460C4617464FF00008FFF7CF
:109320009DFEFFF7E8FF10B1FF20BDE8F08145F09A
:109330004000FFF7D8FF200EFFF7D5FFC4F307402A
:10934000FFF7D1FFC4F30720FFF7CDFFE0B2FFF72F
:10935000CAFF3846FFF7C7FF0C2D02D1FF20FFF7E9
:10936000C2FF4FF01F0800BFFF20FFF7BCFF0646FB
:1093700006F0800030B1B8F10000A8F1010101F061
:10938000FF08F1D13046D0E770B506460D4600F033
:1093900030F808B1012070BD2846FFF7A4FFFD2D6D
:1093A00019D0002404E0305DFFF79DFF601C84B2FB
:1093B000B4F5007FF7DBFF20FFF795FFFF20FFF7F5
:1093C00092FFFF20FFF78FFF044604F01F000528DF
:1093D00001D00220DFE70020DDE710B500210120E9
:1093E00000F056F910BD10B50721012000F050F92A
:1093F00010BD10B5002400BFFF20FFF774FFFF2849
:1094000001D1002010BD641C6FF07F408442F3D373
:109410000120F7E72DE9F04106460F4615462048A2
:109420000078062800D07F02012D0CD10122394698
:109430001820FFF76DFF044664BBFE213046FFF79E
:10944000A3FF044626E016480078012809D001222F
:1094500000213720FFF75CFF012229461720FFF784
:1094600057FF012239461920FFF752FF04468CB9F5
:1094700000BFFC213046FFF787FF044606F5007663
:10948000681E051E01D0002CF3D0FD210020FFF73F
:109490007BFF0446FFF7E2FD2046BDE8F0810000B7
:1094A000140000200B4881890B48B0F802080B4AD1
:1094B00022F810100848B0F80208401C4FF4A051E0
:1094C00090FBF1F201FB120081B20348A0F80218F0
:1094D0007047000000300140303000203010002084
:1094E00039B1084A32F81020074B53F820301A617E
:1094F00006E0044A32F81020034B53F820305A613A
:1095000070470000300000202400002021B10288B4
:1095100042F04002028004E002884FF6BF731A4016
:109520000280704710B504460021204600F006F87E
:109530000021204600F0ACF810BD000030B593B01B
:1095400004460D46394AD2E900109268CDE911026D
:109550001091364A0C3207CA0DAB07C33349183194
:1095600003C9CDE90B01314A2032D2E900109268DB
:10957000CDE9090208912D492C3103C9CDE9060135
:109580002A4A343207CA03AB07C32849403103C90A
:10959000CDE9010110A951F824000121FFF7E0FCF9
:1095A00003208DF802000DB1042000E018208DF892
:1095B00003000BA830F81400ADF800000DA951F815
:1095C00024006946FDF7F8FF06A830F81400ADF84E
:1095D000000008A951F824006946FDF7EDFF01A835
:1095E00030F81400ADF8000003A951F824006946D2
:1095F000FDF7E2FF0DB1042000E010208DF803001C
:109600000B4830F81400ADF800000A4951F8240066
:109610006946FDF7D1FF064A32F81410054A52F8A0
:109620002400FEF7F0F813B030BD0000B83D01088B
:1096300030000020240000200246002013890B4047
:109640000BB1012000E00020704701468889704777
:109650008181704710B50022028802F441520B88C4
:109660004C8823438C882343CC8823430C89234391
:109670004C8923438C892343CC8923431A4302809A
:10968000838B4FF2FF74234083830B8A038210BDC8
:1096900030B585B004460D4624B1012C07D0022C0C
:1096A0000FD109E001210803FFF75AFC0AE001216C
:1096B0008803FFF735FC05E00121C803FFF730FC04
:1096C00000E000BF00BFE800ADF80C000120ADF8DD
:1096D00008000220ADF806000720ADF810000020B9
:1096E000ADF80400ADF80000ADF80E004FF4827044
:1096F000ADF802004FF40070ADF80A00064951F8C9
:1097000024006946FFF7A6FF034951F82400012110
:10971000FFF7FCFE05B030BD180000204FF4C76114
:1097200041EA40010143044A11801146898841F011
:1097300040019180704700000030014070B5044640
:109740000D4600BF0E4951F824000221FFF774FFB7
:109750000028F7D00A4951F824002946FFF778FF7E
:1097600000BF074951F824000121FFF765FF0028D9
:10977000F7D0034951F82400FFF767FF70BD0000E0
:10978000180000201CB501210920FFF7E9FB012189
:109790008803FFF7C5FB4FF46040ADF804000320D9
:1097A0008DF8060018208DF8070001A91048FDF774
:1097B00003FF4FF48050ADF8040028208DF8070017
:1097C00001A90B48FDF7F8FE24208DF800000120C8
:1097D0008DF8010000208DF8020001208DF80300B3
:1097E0006846FFF711FB0120FFF798FF1CBD000042
:1097F000000C014008B524208DF8000000208DF8F1
:1098000003006846FFF700FB28208DF800000020C9
:109810008DF803006846FFF7F7FA01218803FFF788
:109820008FFB00214FF48040FFF78AFB08BD0EB587
:109830000C210120FDF7A0FE4FF480500190002084
:109840008DF8080010208DF8090001208DF80A001D
:1098500001A8FDF7E7FC28208DF8000000208DF816
:10986000010001208DF802008DF803006846FFF723
:10987000CBFA0EBD2DE9F0410446002500F05AF860
:10988000064600F061F8074614E004F0800030B1AD
:109890004FF4FC623946304600F024F804E0002220
:1098A0003946304600F01EF86006040E701C06B201
:1098B000681CC5B2082DE8DB094840790830084922
:1098C000487108464079102807D1002048710846A1
:1098D0000078401C00F08F000880BDE8F081000097
:1098E000C00C0020F8B504460D4616466F1C07EB69
:1098F00047074037BBB2671C07EB47073037BAB2A0
:1099000005EB45074037B9B204EB44073037B8B22E
:109910000096FEF749FFF8BD0146F82905D0FA295F
:1099200003D0FC2901D0FE2901D10120704700207D
:10993000FCE7000003484179007800F0070001EBE4
:1099400000107047C00C002005484088803804494A
:109950000978C1F3C00100EB411000B2704700006C
:10996000C00C002010B504462046FFF7D5FF28B1F3
:109970001C48047000201C49087030E01A48017827
:109980000078401C184A107018484454104600785B
:10999000012800D110BD002013490870114800783B
:1099A000F82806D0FA280DD0FC2814D0FE2814D1AF
:1099B00012E00E4909780D4A527841EA221000F06F
:1099C00017F80BE009490978084A527841EA221051
:1099D000FFF750FF02E001E000E000BF00BF00BF62
:1099E000D8E70000C60C0020C70C002084720020BD
:1099F00010B5044604F0800010B1204600F002F8D3
:109A000010BD00000949097811B90949488001E0F1
:109A100007490880054A1278511C01EBD172521097
:109A2000A1EB4202014B1A7070470000C80C0020E5
:109A3000C00C002070B504460D4625B1A1882068F1
:109A4000FDF7E1FE03E0A1882068FDF7DAFE70BDB6
:109A50002DE9F84F04460D4616461F46DDE90CABCE
:109A6000DDE90A892660A780C4F80880A4F80C9074
:109A7000C4F810A0A4F814B00E98A0610F98A083A9
:109A8000A5772068FDF76CFEA068FDF769FE2069E8
:109A9000FDF766FEA069FDF763FE03208DF8020066
:109AA00010208DF80300A07F10B1A07F012804D101
:109AB000A189A068FDF7A5FE03E0A189A068FDF7D4
:109AC000A2FEA089ADF800006946A068FDF774FD0C
:109AD000A08BADF800006946A069FDF76DFDA18B74
:109AE000A069FDF790FEA088ADF8000069462068E7
:109AF000FDF762FDA1882068FDF785FE04208DF842
:109B00000300A08AADF8000069462069FDF754FD06
:109B1000BDE8F88F2DE9F04104460D464FF00808E6
:109B200000270026A07F30B101282ED0022856D071
:109B3000032829D17DE0002724E04FF6FF7000EADA
:109B40004606A18A2069FDF753FE0643A189A06855
:109B5000FDF759FE00BF05F0800020B1A18BA06980
:109B6000FDF751FE03E0A18BA069FDF74AFE00BF9F
:109B70004FF6FF7000EA4505A189A068FDF741FE98
:109B8000781CC7B24745D8DB7DE0002724E000BF42
:109B900005F0800020B1A18BA069FDF734FE03E041
:109BA000A18BA069FDF72DFE00BF4FF6FF7000EA04
:109BB0004505A189A068FDF726FE4FF6FF7000EA73
:109BC0004606A18A2069FDF713FE0643A189A06815
:109BD000FDF717FE781CC7B24745D8DB53E00027D6
:109BE00024E04FF6FF7000EA4606A18A2069FDF7DF
:109BF000FFFD0643A189A068FDF703FE00BF05F045
:109C0000800020B1A18BA069FDF7FDFD03E0A18BD1
:109C1000A069FDF7F6FD00BF4FF6FF7000EA4505AD
:109C2000A189A068FDF7EFFD781CC7B24745D8DBD6
:109C300029E0002724E000BF05F0800020B1A18BBF
:109C4000A069FDF7E0FD03E0A18BA069FDF7D9FD58
:109C500000BF4FF6FF7000EA4505A189A068FDF737
:109C6000D0FD4FF6FF7000EA4606A18A2069FDF795
:109C7000BFFD0643A189A068FDF7C5FD781CC7B2EA
:109C80004745D8DB00BF00BF3046BDE8F08170B566
:109C900004460E4615461C212046FCF7BFFA6660B6
:109CA0003046FCF7EEFA2082304607F0F2F9608287
:109CB000B5F90400B5F90010401A0C2190FBF1F041
:109CC000A082256070BD00002DE9F84304460E46D1
:109CD00017460025606808B9BDE8F883608AA18A44
:109CE00088427CDDFFF7D2F8A168401A052877D9B1
:109CF000FFF7CCF8A060D4F800C0BCF90630BCF97E
:109D00000420BCF90210BCF90000FEF7BFFDE08A98
:109D1000218A88426ADAA089401C00B2A081E18AC7
:109D20006068405C812808DAA0890C2822D1E08A8A
:109D3000401CE0820020A0811CE0E28A6168881853
:109D400004F05AFF28B9E28A6168881804F033FFEA
:109D500040B1A0890C280DD1E08A801CE08200204F
:109D6000A08107E0A089182804D1E08A801CE08245
:109D70000020A081207D001DC0B20090B4F816C064
:109D8000636803EB0C0223681B88B4F80CC0A3EBD8
:109D90000C0318B22368B3F902103346FDF7B0FF85
:109DA0002068408885B218E0228AE38AD01AA28A05
:109DB000111D07F05DF800EB400021680988A289B9
:109DC000891A01EB80000FFA80F84548028829B211
:109DD0004046FEF783F9681C85B2206802E03AE04D
:109DE0007AE003E0B0F90600A842DDDC208AE18ACF
:109DF000411AA08A001F81422ADAE089401C00B281
:109E0000E081B4F90E000B300C2190FBF1F000F072
:109E1000FF08CDF8008023689B88B4F80EC0A3EB40
:109E20000C0318B2D4E90032B3F902103346FDF73F
:109E300067FF2068B0F904002168B1F90010401AEA
:109E4000B4F90E10884203DC0020A081E081E0829A
:109E5000FDF7DCFC42E0207EF0BB27B1012F0CD0E7
:109E6000022F36D11CE0D4E90032B3F90210B3F965
:109E700000003346FDF79DFF2BE020688088618A53
:109E800001EB4101A0EB81001FFA80F8D4E9000248
:109E9000B0F9021033460FFA88F0FDF78AFF18E098
:109EA0002068B0F904002168B1F90010401A618AF5
:109EB00001EB4101A0EB8100C0F34F08D4E900326F
:109EC000B3F902101B88434418B23346FDF771FF03
:109ED00000BF00BF012000E000E0207600BFFBE6ED
:109EE0009A0C002010B5044601210846FFF708F837
:109EF00040F224422146002000F0FAFA104800887F
:109F000040F040000E4908800D4810380D490866A1
:109F10000D48006848664FF49670C8650020886553
:109F20000846806D40F4405088650846806D40F0DA
:109F3000800088650846806D40F00100886510BD8E
:109F400014380140000002404C00002010B54FF4CE
:109F5000967109480068FCF761F90848806D20F0A7
:109F60000100064988654FF49670C8650846806D03
:109F700040F00100886510BD4C0000200000024048
:109F80000DE000BF0849098801F040010029F9D01F
:109F900010F9012BC2F30801034A121D1180017848
:109FA0000029EED1704700000038014010B5024989
:109FB0000868FFF797FF10BDC80F002010B500F02C
:109FC00001F810BD0CB500200190009033480068E6
:109FD00040F480303149086000BF3048006800F428
:109FE000003000900198401C0190009818B9019829
:109FF000B0F5A06FF1D12948006800F4003010B12D
:10A000000120009001E0002000900098012843D139
:10A010002348006840F010002149086008460068A5
:10A0200020F0030008600846006840F00200086065
:10A030001A48406819494860084640684860084620
:10A04000406840F4806048600846406820F47C1016
:10A0500048600846406840F4F810486008460068C8
:10A0600040F08070086000BF0C48006800F000708D
:10A070000028F9D00948406820F0030007494860EB
:10A080000846406840F00200486000BF034840684E
:10A0900000F00C000828F9D10CBD000000100240AF
:10A0A0000020024010B51348006840F0010011493B
:10A0B000086008464068104908400E494860084654
:10A0C00000680E4908400B4908600846006820F403
:10A0D000802008600846406820F4FE0048604FF485
:10A0E0001F008860FFF76AFF4FF0006004490860B6
:10A0F00010BD0000001002400000FFF8FFFFF6FE58
:10A1000008ED00E010B50E48008800F00100B0B185
:10A110000C480068401C0B4908600846006809F0BC
:10A120007FF805F027F807480068B0F1804F02D1AA
:10A130000020044908604FF6FE700149088010BDF8
:10A1400010080040F80F0020F0B58BB0B54A07CAE0
:10A1500008AB07C3B34A0C32D2E900109268CDE9CC
:10A1600006020591002400BF4FF6FF70FDF754FB77
:10A170000020FEF785FB4FF6FF70FEF77BFB4220C9
:10A1800009F042FC074606F084FF00EB40004FF464
:10A19000F071A1EB8000C0F34F06422009F034FCBF
:10A1A000074600233A46052130B2FDF702FE432060
:10A1B00009F02AFC074606F06CFF00EB40004FF464
:10A1C000F071A1EB8000C0F34F06432009F01CFCA6
:10A1D000074600233A46192130B2FDF7EAFD4FF455
:10A1E0007840FEF74DFB002452E005AA32F8242007
:10A1F00091B208AA32F8242090B20322FEF7EFF8B9
:10A2000000252CE005AA32F8242091B208AA32F8E1
:10A2100024202A4490B2FDF797FF05AA32F82420A3
:10A2200091B208AA32F82420521B90B2FDF78CFF9D
:10A2300005AA32F824202A4491B208AA32F8242030
:10A2400090B2FDF781FF05AA32F82420521B91B28B
:10A2500008AA32F8242090B2FDF776FF6D1C0A2D73
:10A26000D0DB00BF04F0BCFC0028FBD0D02000F005
:10A270009FFC03A921F81400902000F099FC01A98B
:10A2800021F8140000BF04F0ABFC0028FBD1641CD3
:10A29000032CAAD3BDF80C00BDF81010401ABDF86D
:10A2A0000610BDF80820891A4843BDF80E10BDF805
:10A2B0001020891ABDF80420BDF80830D21A01FB1D
:10A2C0001200594988610A990898401ABDF8061089
:10A2D000BDF80820891A4843DDE90912891ABDF83A
:10A2E0000420BDF80830D21A01FB12004E49086064
:10A2F000BDF80C00BDF81010401ADDE90912891AEA
:10A3000048430899891ABDF80E20BDF81030D21ABA
:10A3100001FB120044494860BDF810000999484308
:10A32000BDF80E100A9A01FB1200BDF80410484354
:10A33000BDF80C105143BDF81020089B02FB13110F
:10A34000BDF8062002FB0101BDF80E005843BDF820
:10A350000C20099B02FB1300BDF8082002FB001033
:10A360003149886007990598401ABDF80610BDF874
:10A370000820891A4843DDE90612891ABDF804202D
:10A38000BDF80830D21A01FB12002749C860BDF899
:10A390000C00BDF81010401ADDE90612891A484376
:10A3A0000599891ABDF80E20BDF81030D21A01FBAC
:10A3B00012001D490861BDF8100006994843BDF818
:10A3C0000E10079A01FB1200BDF804104843BDF8B7
:10A3D0000C105143BDF81020059B02FB1311BDF872
:10A3E000062002FB0101BDF80E005843BDF80C2009
:10A3F000069B02FB1300BDF8082002FB00100A496F
:10A400004861A021F02000F0EDFE00283FF4ACAE42
:10A410004FF6FF70FEF734FA0020FEF72BFA0BB070
:10A42000F0BD0000784F0108687200202DE9F0416E
:10A4300004460D46D02000F0BBFB0646902000F0FD
:10A44000B7FB07460F48006870430E49496801FB97
:10A4500007000C49896808440A498969B0FBF1F092
:10A4600020800848C06870430649096901FB07005D
:10A4700004494969084403498969B0FBF1F028801F
:10A48000BDE8F0816872002000B5032000F090F86C
:10A4900000BD00B5042000F08BF800BD00B5002021
:10A4A00000F086F800BD00B5012000F081F800BD85
:10A4B00000B5022000F07CF800BD10B5002200239A
:10A4C00040F66A14A14200D100BF0A120124944050
:10A4D000A3B2DC43048010BD21B1828942F4005252
:10A4E000828104E082894DF6FF731A4082817047B1
:10A4F00070B505460E4614463146284600F042F92E
:10A500002146284600F080F80021284600F002F895
:10A5100070BD000030B597B004460D4614222349A3
:10A5200012A8FBF762FE1422204914310DA8FBF794
:10A530005CFE1E4A283207CA0AAB07C314221B4915
:10A54000343105A8FBF751FE184A483207CA02AB5E
:10A5500007C312A951F824000121FEF701FD0320D1
:10A560008DF806000DB1042000E018208DF80700DA
:10A570000AA830F81400ADF804000DA951F8240021
:10A5800001A9FDF719F80DB1042000E048208DF86D
:10A59000070002A830F81400ADF8040005A951F82E
:10A5A000240001A9FDF708F817B030BD003E0108EE
:10A5B00001460020104A128802F01002D2B14FF674
:10A5C000EF720D4B1A801A1D12880C4AD26DC2F51B
:10A5D000967290B2421E0A4B1B689A5C0A2A03D1FB
:10A5E0000122084B5A7005E0B0F5947F02DB01228E
:10A5F000044B5A70704700000038014000000240D0
:10A600004C000020FC0F002030B587B004460D46FA
:10A610001422114902A8FBF7E8FD02A810F8240053
:10A620008DF8040001208DF8070000208DF805004A
:10A630008DF8060001A8FEF7E7FB084951F8240051
:10A640000122294600F00CF8044951F8240029465B
:10A65000FFF733FF07B030BD543E0108380000203B
:10A66000F0B50346002400260025002040F66A17B6
:10A67000B94200D100BF1846C1F3421401F01F06D1
:10A68000012707FA06F5012C01D10C3004E0022C59
:10A6900001D1103000E014301AB107682F43076071
:10A6A00002E00768AF430760F0BD00002DE9F04706
:10A6B00086B005460E460024A24600BFA1460027EC
:10A6C000B08900B100BF2F462C8A4CF6FF700440C1
:10A6D000F08804432C82AC894EF6F3100440B08815
:10A6E00031890843718908430443AC81AC8A4FF631
:10A6F000FF400440B0890443AC8201A8FEF740FC4F
:10A700001F48874202D1DDF810A001E0DDF80CA05F
:10A71000A88900F4004040B10AEBCA0000EB0A101F
:10A7200031684900B0FBF1F807E00AEBCA0000EB22
:10A730000A1031688900B0FBF1F86420B8FBF0F032
:10A7400004012009642101FB1089A88900F400405C
:10A7500040B1322000EBC900B0FBF1F000F007007F
:10A76000044308E0322000EB09106421B0FBF1F053
:10A7700000F00F0004432C8106B0BDE8F087000014
:10A78000003801407FB504460D46052C1DD2DFE898
:10A7900004F003080D12170001218803FEF7E0FB07
:10A7A00013E001214804FEF7BBFB0EE00121880401
:10A7B000FEF7B6FB09E00121C804FEF7B1FB04E097
:10A7C00001210805FEF7ACFB00BF00BF009500208B
:10A7D000ADF80C000C20ADF80A000020ADF8080020
:10A7E000ADF80600ADF80400064951F824006946AA
:10A7F000FFF75CFF034951F824000121FFF76CFECD
:10A800007FBD0000380000207047034601207047DC
:10A810000346012070470020704710B5044600F041
:10A82000FCF8002000F044F8202000F048F8C4F3C1
:10A83000074000F044F8C4F3072000F040F8E0B20D
:10A8400000F03DF8012000F033F800F040F810BDB2
:10A8500010B50020FEF766FE01210020FEF718FF6C
:10A86000012000F025F810BD70B505460C461646CF
:10A87000002000F01DF8032000F021F8C4F3074089
:10A8800000F01DF8C4F3072000F019F8E0B200F062
:10A8900016F804E0FF2000F012F828706D1C301E3E
:10A8A000A6F101018EB2F5D1012000F001F870BDD2
:10A8B00010B5044621460020FEF712FE10BD10B56B
:10A8C000044621460020FEF739FFC0B210BD10B586
:10A8D00000240020FFF7ECFF0520FFF7F0FF00BF8A
:10A8E000FF20FFF7ECFF044604F001000028F7D139
:10A8F0000120FFF7DDFF10BD2DE9F05F07460E4692
:10A9000014464FF00008C146C2460025AB4606F08B
:10A91000FF0ACAF10000C5B22046E11704EB11613D
:10A92000C1F30728E11704EB11610912A4EB01211F
:10A9300001F0FF09BAF1000F20D1B8F1000F05D1E5
:10A9400022463146384600F073F864E009E04FF4DF
:10A9500080723146384600F06BF806F5807607F5D0
:10A960008077B8F10000A8F1010101F0FF08EED1F5
:10A970004A463146384600F05BF84CE0B8F1000F2B
:10A9800018D1A94510DDA9EB050000F0FF0B2A4600
:10A990003146384600F04CF82E442F445A46314692
:10A9A000384600F045F836E022463146384600F099
:10A9B0003FF830E0601B84B22046E11704EB1161E0
:10A9C000C1F30728E11704EB11610912A4EB01217F
:10A9D00001F0FF092A463146384600F029F82E4496
:10A9E0002F4409E04FF480723146384600F020F8D9
:10A9F00006F5807607F58077B8F10000A8F101012F
:10AA000001F0FF08EED1B9F1000F04D04A463146FB
:10AA1000384600F00DF8BDE8F09F10B50020FFF7B4
:10AA200047FF0620FFF74BFF0120FFF741FF10BD56
:10AA300070B505460C461646FFF7EFFF0020FFF7FE
:10AA400037FF0220FFF73BFFC4F30740FFF737FF54
:10AA5000C4F30720FFF733FFE0B2FFF730FF03E056
:10AA60002878FFF72CFF6D1C301EA6F101018EB275
:10AA7000F6D10120FFF71CFFFFF729FF70BD2DE97C
:10AA8000FE4380460027002406E0404600F070F8B0
:10AA90002DF81400601C84B2052CF6DB002416E0AF
:10AAA000601C85B20FE03DF814003DF81510884297
:10AAB00007DD3DF814603DF815002DF814002DF861
:10AAC0001560681C85B2052DEDDB601C84B2042C7A
:10AAD000E6DB012405E03DF81400384487B2601C31
:10AAE00084B2042CF7DB032097FBF0F086B23046EB
:10AAF000BDE8FE8310B5044621460248FEF79AFFE2
:10AB000010BD00001010002000B587B001211020FA
:10AB1000FEF726FA1020ADF8180004208DF81B006F
:10AB200006A90C48FCF748FD08200A490422CDE993
:10AB30000212CDE90410022001230A46CDE90010DB
:10AB400003210548FEF784FF0120FFF7D3FF07B07C
:10AB500000BD0000001001401010002010B5044698
:10AB600021460248FEF7D6FFC0B210BD10100020EB
:10AB700070B505460020FFF7BDFF2846FFF7EEFF42
:10AB8000FF20FFF7EBFF0446FF20FFF7E7FF40EA57
:10AB9000042424110120FFF7ADFF204670BD000002
:10ABA00010B510210148FCF723FE10BD0010014034
:10ABB00070B506463046FFF762FF04463046FFF7A1
:10ABC0005EFF0546A54203DC05F13200844205DB49
:10ABD000AC4209DC04F13200854205DA611901EB6F
:10ABE000D170C0F34F0070BD0020FCE70FB4084BDC
:10ABF00010B504A902AA039800F026F8044602A999
:10AC0000002000F0FDF8204610BC5DF814FB0000A9
:10AC100001AE0008004870470C10002002E008C890
:10AC2000121F08C1002AFAD170477047002001E0C6
:10AC300001C1121F002AFBD1704730380A2801D207
:10AC400001207047002070472DE9FF4F8BB09A46D6
:10AC50000F460546002606E025280BD052460D99E2
:10AC600090476D1C761C28780028F5D10FB030462F
:10AC7000BDE8F08F0024A0460122604900E00443B3
:10AC800015F8013F203B02FA03F00842F7D128787B
:10AC90002E2817D115F8010F44F004042A280ED0ED
:10ACA0006FF02F022878A0F1300109290AD808EBAB
:10ACB000880102EB410100EB01086D1CF2E757F837
:10ACC000048B6D1C287869283ED006DC0028CDD086
:10ACD00063280BD0642804D136E0732810D075287F
:10ACE0004BD052460D999047761C85E017F8040B1F
:10ACF0008DF8000000208DF80100E946012003E0F6
:10AD000057F8049B4FF0FF3061074FF0000401D467
:10AD10000AE0641C44450DDA8442FADB19F8041099
:10AD20000029F6D106E0641C8442FCDB19F804100B
:10AD30000029F8D1264404E019F8010B52460D9978
:10AD40009047641EF8D257E001CF4FF00A0B00285D
:10AD500002DA40422D2102E0210504D52B218DF895
:10AD60002410012103E0E10705D02021F7E70DF1D0
:10AD7000200908910CE00021F9E701CF4FF00A0B00
:10AD8000F9E75946FBF736FE01F1300209F8012DCB
:10AD90000028F6D1ADEB090000F1200B600701D4CB
:10ADA0004FF00108D84502DDA8EB0B0000E00020C1
:10ADB0008046002406E009A85246005D0D999047A0
:10ADC000641C761C08988442F5DB04E0302052466F
:10ADD0000D999047761CB8F10001A8F10108F5DC47
:10ADE00005E019F8010B52460D999047761CBBF10E
:10ADF0000001ABF1010BF4DC6D1C34E70928010004
:10AE00000A68531C0B6010707047000038B5044688
:10AE1000482008F0F9FD0546002000900E480F4933
:10AE2000098842182B4621460D4806F0FFFC0D48C4
:10AE300090F828000B4951F820000B49884209D0AE
:10AE4000084890F82800401CC0B2064A82F8280042
:10AE500042F8201038BD00001E5C00207C0000205D
:10AE6000700E0020E07800209902010802460021BF
:10AE700008E050560B4B5B56984201D000207047BB
:10AE8000481C81B2B1F5967F05DA505C18B10548CF
:10AE9000405C0028EDD10348405C08B10020EEE79B
:10AEA0000120ECE71E5C002070B50A490A4A1288AE
:10AEB00088182F21FBF7DBF904463CB10021601C08
:10AEC00008F0DBFC0546FBF765FD70BD4FF03F4029
:10AED000FBE700001E5C00207C00002002460020F2
:10AEE000184B188020E0002101E0481C81B2505C22
:10AEF00060B1144800880844134B185C30B1114805
:10AF000000880844185653569842EED0505C30B929
:10AF10000C48008808440B4B1880012070470948F2
:10AF20000088401C074B188006480088B0F5967FC3
:10AF300005DA0548034B1B88C05C0028D3D10020EC
:10AF4000ECE700007C0000201E5C002070B5054985
:10AF5000054A12888818002108F08FFC0446FBF788
:10AF600019FD70BD1E5C00207C00002038B5022059
:10AF7000124A0090B2F90620104BB3F90230D41AED
:10AF800004EBD4720D4B5B8803EB620211B20B4AE7
:10AF9000B2F90420094BB3F90030D21AA2F10C0522
:10AFA00005EBD572054B1B8803EB6202123A10B217
:10AFB0000123034A1268FCF76DFD38BD00520108F9
:10AFC000F00C00202DE9F047ADF55C7D82460E4681
:10AFD00000250122514648A801F00AFE20B10020B8
:10AFE0000DF55C7DBDE8F08701AB022247A948A8BA
:10AFF00002F00CF8022261A147A8FBF757F908B14B
:10B000000020EDE70A22002348A801F0A4FB01ABD1
:10B01000042243A948A801F0F9FF1222002348A8FE
:10B0200001F099FB01AB042246A948A801F0EEFF0C
:10B0300001AB042245A948A801F0E8FF1C22002327
:10B0400048A801F088FB01AB022244A948A801F0FE
:10B05000DDFFBDF91001182801DA0020C0E7BDF9B5
:10B060001001C0104490BDF91011469800FB01F486
:10B07000E11704EB91718910A4EB810131B12046F5
:10B08000E11704EB91718910491C8C00002505E043
:10B0900006EB0530FFF7C1FB681C85B2459A46995F
:10B0A000514340F6FF7202EB4100C11700EB115112
:10B0B000B5EB213FECDB00254FF000094FE0459850
:10B0C000A0EB0900401E439900FB0410C31707467C
:10B0D0003A4648A801F03FFB00273BE001ABBDF931
:10B0E000102102A948A801F091FF9DF80A00C108AB
:10B0F000BDF8000061F3CF2000909DF809008108A1
:10B10000BDF8000061F34A1000909DF80800C108E6
:10B11000BDF8000061F304000090BDF800000212C9
:10B120002846691C8DB203A90A54BDF80000C2B2BA
:10B130002846691C8DB203A90A54B5F5807F08D151
:10B140004FF48072314603A8FFF772FC06F5807653
:10B1500000257F1C46988742C0DB09F1010945980C
:10B160008145ACDB2A46314603A8FFF761FC2E443B
:10B1700048A801F0D3FA012032E70000424D000058
:10B180002DE9F0410446012C22D14FF6E070FDF785
:10B1900077FB134BB3F90430114FB7F90070DD1B87
:10B1A00005EBD573C3F34F020D4BB3F906300C4FCB
:10B1B000B7F90270DE1B06EBD673C3F34F01084BE1
:10B1C0001B8898B2FDF70BF94FF6FF70FDF758FB9F
:10B1D00003480473FDF75AFE01498860BDE8F08119
:10B1E0003C0E00202DE9FC5F05460E460020FDF7D1
:10B1F00047FB052231462846FDF7F1F8002414E00C
:10B20000291988B23146FCF79FFF291B88B23146C5
:10B21000FCF79AFF301981B22846FCF795FF301BE6
:10B2200081B22846FCF790FF641C0A2CE8D300BFCB
:10B2300003F0D6FC0028FBD0D020FFF7B9FC8346F2
:10B240009020FFF7B5FC07464348006800FB0BF170
:10B250004148426802FB07103F49896808443E495B
:10B260008969B0FBF1F93C48C06800FB0BF13A4832
:10B27000026902FB0710384949690844364989695F
:10B28000B0FBF1FA05F10A00814528DA1438484587
:10B2900025DAA6F10A00504521DA143082451EDA7B
:10B2A000442008F0B1FB019005F0F3FE00EB4000F4
:10B2B0004FF4F071A1EB8000C0F34F08442008F078
:10B2C000A3FB012302464FF48C7101900FFA88F022
:10B2D000FCF76FFD4FF47A70FBF75AFF39E000BFBF
:10B2E00003F07EFC0028FBD14FF47840FDF7C8FA4C
:10B2F000452008F089FB019005F0CBFE00EB4000F3
:10B300004FF4F071A1EB8000C0F34F08452008F026
:10B310007BFB012302464FF48C7101900FFA88F0F9
:10B32000FCF747FD0020009003234A4601460190A8
:10B33000FCF746FB002000900323524614210190A5
:10B34000FCF73EFB4FF47A70FBF722FF0020BDE8CC
:10B35000FC9F0120FBE70000687200202DE9F04708
:10B3600004460D4690469946AD1E206B00EB153AFB
:10B37000C5F3C80605F0070101208840C7B200BF29
:10B3800051460AF1010A204605F0F8FD10B10120EE
:10B39000BDE8F08700BF00BF04F13800805D384091
:10B3A00008B1012000E00020484501D10220EFE76C
:10B3B00004F13800805D784004F13801885501209F
:10B3C000E070A8F10100B0F1000800D1E0E77806D4
:10B3D000000E071EE0D10127701C0646B0F5007F65
:10B3E000D9D30026CCE7000070B504460D460020F6
:10B3F000E070401E60632946204605F0BFFD08B19D
:10B40000042070BD04F2362003F018FD4AF65521E1
:10B41000884201D00320F4E794F83800E92807D0E7
:10B4200094F83800EB2817D13A20005D902813D10A
:10B4300004F16E0003F0C5FC20F07F400C49884207
:10B4400001D10020DDE704F18A0003F0BAFC0949CC
:10B45000884201D10020D4E70B2207A104F1380073
:10B4600003F06BFF08B90120CBE70220C9E7000019
:10B470004641540046415433EB769045584641547A
:10B4800020202000024600E0521C107818B192F9EA
:10B4900000008842F8D192F90000704710B50020F2
:10B4A000084981F8D00781F8D10781F8D207064909
:10B4B00081F8D00781F8D10781F8D20703F0BAFAF2
:10B4C00010BD0000784C00204B54002010B5002423
:10B4D00000BF0AE0144951F8240002F0A5FD002144
:10B4E000114840F82410601CC4B21048B0F8F80BA2
:10B4F000A042EFDC00240AE00D4951F8240002F0DC
:10B5000093FD00210A4840F82410601CC4B207488B
:10B51000B0F8FA0BA042EFDC00200449A1F8F80BC8
:10B52000A1F8FA0B10BD000080040020800000206C
:10B530007C08002010B528210148FAF76FFE10BDE5
:10B54000D07200202DE9F84F824615461E46DAF8E3
:10B5500000000090DAF8480000F104094FF400728E
:10B56000002328463146FAF70FFE07460098B0F848
:10B570000AC0624600233846FAF706FE834600BF3B
:10B5800059F8044B14B90020BDE8F88FA34500D248
:10B5900004E0ABEB040B09F10409F1E700BFD9F8B3
:10B5A00000005844F0E70246891ED069801E884298
:10B5B00001D8002070475389106B01FB0300F9E7A5
:10B5C00070B50A4991F8D01701EBC10202EB0111E5
:10B5D000064A02EB8101064A12788818002108F019
:10B5E0004CF90446FBF7D6F970BD0000784C0020FA
:10B5F0007A00002001460020184A10701AE018480E
:10B6000090F8D00700EBC00202EB0010144A02EBE6
:10B610008000124A12788056884206D10F4800787E
:10B62000401C0E4A1070012070470C480078401CE6
:10B630000A4A10700A4890F8D00700EBC00202EBEB
:10B640000010074A02EB8000044A1278805C18B1AF
:10B65000024800786428D2DB0020E5E77A00002069
:10B66000784C002010B5094991F8D01701EBC102C0
:10B6700002EB0111054A02EB8101054A1278881894
:10B680000A220021FAF74AFE10BD0000784C002083
:10B690007A0000202DE9F04780460C4604F11A009C
:10B6A00003F0CCFB10B10020BDE8F087207800F05B
:10B6B0003F00401E00EB800101EBC0054FF0010987
:10B6C000002621E01849895D081903F0B7FB0746F9
:10B6D000B9F1000F11D0FF2D0BD2384602F0CAF895
:10B6E000824629466D1C38F8110002F0C3F88245E5
:10B6F00001D00020D8E7B94605E04FF6FF70874239
:10B7000001D00020D0E7761C0D2EDBD3207800F08E
:10B71000400038B1B9F1000F04D038F8150008B175
:10B720000020C1E70120BFE74C41010810B50D48DA
:10B7300090F8FE0B40B1012805D0022808D1012065
:10B7400006F0E8FA04E000BF074800F0E7FF00BF9A
:10B7500000BF0020044981F85D0206F063F900F0A3
:10B7600041FF10BD80000020807600200148007855
:10B770007047000078000020014908707047000001
:10B78000780000200146024850F821007047000070
:10B790006400002001480069704700006400002038
:10B7A00070B504460D46104890F90300A04209D137
:10B7B0000E48007810B90E48007808B1012003E067
:10B7C000002001E00A48007806461EB9094840F802
:10B7D000245008E0074951F824002946FAF7D6FD1D
:10B7E000044941F8240070BD8C4101087900002013
:10B7F00078000020640000200149086170470000C3
:10B80000640000202DE9F04707468A463C68BAF1FB
:10B81000000F06D1666916B1E069B04217D801265B
:10B8200015E05146384602F06DFD8046B8F1020F32
:10B8300002D20120BDE8F08708F1010008B94046B6
:10B84000F8E7E069404501D94046F3E756462078DD
:10B8500004282ED101223146204602F078F8054610
:10B860000DB1681C08B92846E4E701231A462946A9
:10B870002046FFF773FD8146B9F1020F01D1012087
:10B88000D8E7B9F1010F02D14FF0FF30D2E7BAF19A
:10B89000000F02D10220F8712CE0F879022829D19A
:10B8A000701C854226D0B868301AB8610320F87140
:10B8B00020E0354600BF6D1CE069A84204D802258F
:10B8C000B54201D90020B5E72946384602F01AFDF5
:10B8D0008046B8F1000F00D10BE0B8F1010F02D0A3
:10B8E00008F1010008B94046A4E7B542E3D10020C1
:10B8F000A0E700BF2078042805D1F879022802D1FA
:10B900004FF0000912E04FF0FF322946204606F0C2
:10B9100093FA8146B9F1000F08D1BAF1000F05D0B2
:10B920002A465146204606F087FA8146B9F1000FB3
:10B930000DD16561D4E90610801E814202D2A06952
:10B94000401EA061207940F00100207107E0B9F1AC
:10B95000010F02D14FF0FF3000E0012005462846DC
:10B9600068E700002DE9F34F83B081460498006832
:10B970000190D9F80000D0F80CA00020064605463A
:10B9800000BF28466D1C0199085684B2202C00DAAD
:10B9900041E02F2C01D05C2C0AD100E06D1C0198F5
:10B9A000405D2F28FAD00198405D5C28F6D032E047
:10B9B000FF2E03D3062005B0BDE8F08FE4B2812C42
:10B9C00013DBE0B2FE2810DC28466D1C01990F5CE9
:10B9D00007EB042084B2402F01DB7E2F05DD802F92
:10B9E00001DBFE2F01DD0620E5E70121204601F005
:10B9F00005FF04460CB90620DDE7802C06DA214657
:10BA00006FA0FFF73FFD08B10620D4E73046761C53
:10BA10002AF81040B5E700BF019841190498016069
:10BA2000202C01DA042000E00020804608E0701E8F
:10BA30003AF81040202C02D02E2C00D002E0761EC6
:10BA4000002EF4D100BF00202AF816000EB90620FF
:10BA5000B1E70B22202109F1380003F08DFC00250D
:10BA600000E06D1C3AF815002028FAD03AF81500CD
:10BA70002E28F6D00DB148F0030800E0761E26B15E
:10BA8000701E3AF810002E28F8D1002007460290C8
:10BA90004FF0080B00BF28466D1C3AF8104004B95F
:10BAA00063E0202C03D02E2C04D1B54202D048F004
:10BAB0000308F0E70298584501D2B54214D1BBF112
:10BAC0000B0F02D148F003084FE0B54201D048F017
:10BAD0000308B54200D948E03546082002904FF0EF
